{
  "contractName": "Item",
  "abi": [
    {
      "inputs": [
        {
          "internalType": "string",
          "name": "_title",
          "type": "string"
        },
        {
          "internalType": "string",
          "name": "_description",
          "type": "string"
        },
        {
          "internalType": "uint256",
          "name": "_price",
          "type": "uint256"
        },
        {
          "internalType": "address",
          "name": "_addr",
          "type": "address"
        },
        {
          "internalType": "string",
          "name": "_seller",
          "type": "string"
        },
        {
          "internalType": "uint256",
          "name": "_id",
          "type": "uint256"
        },
        {
          "internalType": "string",
          "name": "_imageAddress",
          "type": "string"
        }
      ],
      "stateMutability": "nonpayable",
      "type": "constructor"
    },
    {
      "inputs": [],
      "name": "description",
      "outputs": [
        {
          "internalType": "string",
          "name": "",
          "type": "string"
        }
      ],
      "stateMutability": "view",
      "type": "function"
    },
    {
      "inputs": [],
      "name": "id",
      "outputs": [
        {
          "internalType": "uint256",
          "name": "",
          "type": "uint256"
        }
      ],
      "stateMutability": "view",
      "type": "function"
    },
    {
      "inputs": [],
      "name": "imageAddress",
      "outputs": [
        {
          "internalType": "string",
          "name": "",
          "type": "string"
        }
      ],
      "stateMutability": "view",
      "type": "function"
    },
    {
      "inputs": [],
      "name": "isSold",
      "outputs": [
        {
          "internalType": "bool",
          "name": "",
          "type": "bool"
        }
      ],
      "stateMutability": "view",
      "type": "function"
    },
    {
      "inputs": [],
      "name": "price",
      "outputs": [
        {
          "internalType": "uint256",
          "name": "",
          "type": "uint256"
        }
      ],
      "stateMutability": "view",
      "type": "function"
    },
    {
      "inputs": [],
      "name": "sellerAccount",
      "outputs": [
        {
          "internalType": "address",
          "name": "",
          "type": "address"
        }
      ],
      "stateMutability": "view",
      "type": "function"
    },
    {
      "inputs": [],
      "name": "sellerName",
      "outputs": [
        {
          "internalType": "string",
          "name": "",
          "type": "string"
        }
      ],
      "stateMutability": "view",
      "type": "function"
    },
    {
      "inputs": [],
      "name": "title",
      "outputs": [
        {
          "internalType": "string",
          "name": "",
          "type": "string"
        }
      ],
      "stateMutability": "view",
      "type": "function"
    },
    {
      "inputs": [],
      "name": "setItemSold",
      "outputs": [],
      "stateMutability": "nonpayable",
      "type": "function"
    }
  ],
  "bytecode": "0x60806040523480156200001157600080fd5b5060405162000ba938038062000ba9833981810160405281019062000037919062000262565b8460028190555085600190805190602001906200005692919062000112565b5086600090805190602001906200006f92919062000112565b50816003819055506000600460006101000a81548160ff02191690831515021790555083600460016101000a81548173ffffffffffffffffffffffffffffffffffffffff021916908373ffffffffffffffffffffffffffffffffffffffff1602179055508260059080519060200190620000eb92919062000112565b5080600690805190602001906200010492919062000112565b505050505050505062000555565b828054620001209062000446565b90600052602060002090601f01602090048101928262000144576000855562000190565b82601f106200015f57805160ff191683800117855562000190565b8280016001018555821562000190579182015b828111156200018f57825182559160200191906001019062000172565b5b5090506200019f9190620001a3565b5090565b5b80821115620001be576000816000905550600101620001a4565b5090565b6000620001d9620001d3846200039c565b62000373565b905082815260208101848484011115620001f257600080fd5b620001ff84828562000410565b509392505050565b600081519050620002188162000521565b92915050565b600082601f8301126200023057600080fd5b815162000242848260208601620001c2565b91505092915050565b6000815190506200025c816200053b565b92915050565b600080600080600080600060e0888a0312156200027e57600080fd5b600088015167ffffffffffffffff8111156200029957600080fd5b620002a78a828b016200021e565b975050602088015167ffffffffffffffff811115620002c557600080fd5b620002d38a828b016200021e565b9650506040620002e68a828b016200024b565b9550506060620002f98a828b0162000207565b945050608088015167ffffffffffffffff8111156200031757600080fd5b620003258a828b016200021e565b93505060a0620003388a828b016200024b565b92505060c088015167ffffffffffffffff8111156200035657600080fd5b620003648a828b016200021e565b91505092959891949750929550565b60006200037f62000392565b90506200038d82826200047c565b919050565b6000604051905090565b600067ffffffffffffffff821115620003ba57620003b9620004e1565b5b620003c58262000510565b9050602081019050919050565b6000620003df82620003e6565b9050919050565b600073ffffffffffffffffffffffffffffffffffffffff82169050919050565b6000819050919050565b60005b838110156200043057808201518184015260208101905062000413565b8381111562000440576000848401525b50505050565b600060028204905060018216806200045f57607f821691505b60208210811415620004765762000475620004b2565b5b50919050565b620004878262000510565b810181811067ffffffffffffffff82111715620004a957620004a8620004e1565b5b80604052505050565b7f4e487b7100000000000000000000000000000000000000000000000000000000600052602260045260246000fd5b7f4e487b7100000000000000000000000000000000000000000000000000000000600052604160045260246000fd5b6000601f19601f8301169050919050565b6200052c81620003d2565b81146200053857600080fd5b50565b620005468162000406565b81146200055257600080fd5b50565b61064480620005656000396000f3fe608060405234801561001057600080fd5b50600436106100935760003560e01c80636688c7c6116100665780636688c7c6146100fc5780637284e4161461011a578063a035b1fe14610138578063af640d0f14610156578063e852e7411461017457610093565b806310547851146100985780634a79d50c146100b65780634dd745fc146100d45780635b0e2e6d146100f2575b600080fd5b6100a0610192565b6040516100ad9190610492565b60405180910390f35b6100be6101b8565b6040516100cb91906104c8565b60405180910390f35b6100dc610246565b6040516100e991906104c8565b60405180910390f35b6100fa6102d4565b005b6101046102f1565b60405161011191906104c8565b60405180910390f35b61012261037f565b60405161012f91906104c8565b60405180910390f35b61014061040d565b60405161014d91906104ea565b60405180910390f35b61015e610413565b60405161016b91906104ea565b60405180910390f35b61017c610419565b60405161018991906104ad565b60405180910390f35b600460019054906101000a900473ffffffffffffffffffffffffffffffffffffffff1681565b600080546101c59061059c565b80601f01602080910402602001604051908101604052809291908181526020018280546101f19061059c565b801561023e5780601f106102135761010080835404028352916020019161023e565b820191906000526020600020905b81548152906001019060200180831161022157829003601f168201915b505050505081565b600680546102539061059c565b80601f016020809104026020016040519081016040528092919081815260200182805461027f9061059c565b80156102cc5780601f106102a1576101008083540402835291602001916102cc565b820191906000526020600020905b8154815290600101906020018083116102af57829003601f168201915b505050505081565b6001600460006101000a81548160ff021916908315150217905550565b600580546102fe9061059c565b80601f016020809104026020016040519081016040528092919081815260200182805461032a9061059c565b80156103775780601f1061034c57610100808354040283529160200191610377565b820191906000526020600020905b81548152906001019060200180831161035a57829003601f168201915b505050505081565b6001805461038c9061059c565b80601f01602080910402602001604051908101604052809291908181526020018280546103b89061059c565b80156104055780601f106103da57610100808354040283529160200191610405565b820191906000526020600020905b8154815290600101906020018083116103e857829003601f168201915b505050505081565b60025481565b60035481565b600460009054906101000a900460ff1681565b61043581610521565b82525050565b61044481610533565b82525050565b600061045582610505565b61045f8185610510565b935061046f818560208601610569565b610478816105fd565b840191505092915050565b61048c8161055f565b82525050565b60006020820190506104a7600083018461042c565b92915050565b60006020820190506104c2600083018461043b565b92915050565b600060208201905081810360008301526104e2818461044a565b905092915050565b60006020820190506104ff6000830184610483565b92915050565b600081519050919050565b600082825260208201905092915050565b600061052c8261053f565b9050919050565b60008115159050919050565b600073ffffffffffffffffffffffffffffffffffffffff82169050919050565b6000819050919050565b60005b8381101561058757808201518184015260208101905061056c565b83811115610596576000848401525b50505050565b600060028204905060018216806105b457607f821691505b602082108114156105c8576105c76105ce565b5b50919050565b7f4e487b7100000000000000000000000000000000000000000000000000000000600052602260045260246000fd5b6000601f19601f830116905091905056fea264697066735822122042b63793138abb82365f101c778608b1c5adba2c30b403337bf36f56909985f064736f6c63430008040033",
  "immutableReferences": {},
  "source": "// SPDX-License-Identifier: GPL-3.0\npragma solidity >=0.8.4;\n\ncontract Item {\n    string public title;\n    string public description;\n    uint256 public price;\n    uint256 public id;\n    bool public isSold;\n    address public sellerAccount;\n    string public sellerName;\n    string public imageAddress;\n\n    constructor(\n        string memory _title,\n        string memory _description,\n        uint256 _price,\n        address _addr,\n        string memory _seller,\n        uint256 _id,\n        string memory _imageAddress\n    )  {\n       price = _price;\n       description = _description;\n       title =_title;\n       id = _id;\n       isSold = false;\n       sellerAccount = _addr;\n       sellerName = _seller;\n       imageAddress= _imageAddress;\n    }\n\n    function setItemSold() public {\n        isSold = true;\n    }\n\n    // receive() external payable  {\n    //     require(isSold == false, \"Item not available\");\n    //     require(msg.sender != sellerAccount, \"You can not buy your own posted item.\");\n    //     require(msg.value == price, \"Insufficient balance\");\n    //     payable(sellerAccount).transfer(msg.value);\n    //     setItemSold();\n    // }\n}\n",
  "sourcePath": "/Users/srikanth.mangipudi/Personalspace/Blockchain Development/sell-buy/contracts/Item.sol",
  "compiler": {
    "name": "solc",
    "version": "0.8.4+commit.c7e474f2.Emscripten.clang"
  },
  "schemaVersion": "3.4.1",
  "updatedAt": "2021-06-11T14:04:23.575Z",
  "devdoc": {
    "kind": "dev",
    "methods": {},
    "version": 1
  },
  "userdoc": {
    "kind": "user",
    "methods": {},
    "version": 1
  }
}