{
  "contractName": "ItemManager",
  "abi": [
    {
      "inputs": [
        {
          "internalType": "string",
          "name": "_title",
          "type": "string"
        },
        {
          "internalType": "string",
          "name": "_description",
          "type": "string"
        },
        {
          "internalType": "uint256",
          "name": "_price",
          "type": "uint256"
        },
        {
          "internalType": "string",
          "name": "name",
          "type": "string"
        },
        {
          "internalType": "string",
          "name": "imageHash",
          "type": "string"
        }
      ],
      "name": "createItem",
      "outputs": [
        {
          "internalType": "address",
          "name": "_itemAddress",
          "type": "address"
        }
      ],
      "stateMutability": "nonpayable",
      "type": "function"
    },
    {
      "inputs": [],
      "name": "getItems",
      "outputs": [
        {
          "components": [
            {
              "internalType": "string",
              "name": "title",
              "type": "string"
            },
            {
              "internalType": "string",
              "name": "description",
              "type": "string"
            },
            {
              "internalType": "uint256",
              "name": "price",
              "type": "uint256"
            },
            {
              "internalType": "address",
              "name": "sellerAccount",
              "type": "address"
            },
            {
              "internalType": "string",
              "name": "sellerName",
              "type": "string"
            },
            {
              "internalType": "uint256",
              "name": "id",
              "type": "uint256"
            },
            {
              "internalType": "bool",
              "name": "isSold",
              "type": "bool"
            },
            {
              "internalType": "string",
              "name": "imageAddress",
              "type": "string"
            },
            {
              "internalType": "address",
              "name": "productAddress",
              "type": "address"
            }
          ],
          "internalType": "struct ItemManager.Product[]",
          "name": "",
          "type": "tuple[]"
        }
      ],
      "stateMutability": "view",
      "type": "function",
      "constant": true
    },
    {
      "inputs": [
        {
          "internalType": "uint256",
          "name": "itemIndex",
          "type": "uint256"
        }
      ],
      "name": "buyItem",
      "outputs": [
        {
          "internalType": "bool",
          "name": "isSuccess",
          "type": "bool"
        }
      ],
      "stateMutability": "payable",
      "type": "function",
      "payable": true
    }
  ],
  "bytecode": "0x6080604052600060015534801561001557600080fd5b5061271b806100256000396000f3fe608060405260043610620000385760003560e01c8063410d59cc146200003d578063dc58d1bf146200006d578063e7fb74c714620000b1575b600080fd5b3480156200004a57600080fd5b5062000055620000e7565b604051620000649190620016c6565b60405180910390f35b3480156200007a57600080fd5b506200009960048036038101906200009391906200128b565b62000a95565b604051620000a89190620016a9565b60405180910390f35b620000cf6004803603810190620000c9919062001371565b62000b5e565b604051620000de9190620016ea565b60405180910390f35b6060600060015467ffffffffffffffff8111156200012e577f4e487b7100000000000000000000000000000000000000000000000000000000600052604160045260246000fd5b6040519080825280602002602001820160405280156200016b57816020015b6200015762001026565b8152602001906001900390816200014d5790505b50905060005b60015481101562000a8d5760008082815260200190815260200160002060000160009054906101000a900473ffffffffffffffffffffffffffffffffffffffff1673ffffffffffffffffffffffffffffffffffffffff16634a79d50c6040518163ffffffff1660e01b815260040160006040518083038186803b158015620001f857600080fd5b505afa1580156200020d573d6000803e3d6000fd5b505050506040513d6000823e3d601f19601f8201168201806040525081019062000238919062001246565b82828151811062000272577f4e487b7100000000000000000000000000000000000000000000000000000000600052603260045260246000fd5b60200260200101516000018190525060008082815260200190815260200160002060000160009054906101000a900473ffffffffffffffffffffffffffffffffffffffff1673ffffffffffffffffffffffffffffffffffffffff16637284e4166040518163ffffffff1660e01b815260040160006040518083038186803b158015620002fd57600080fd5b505afa15801562000312573d6000803e3d6000fd5b505050506040513d6000823e3d601f19601f820116820180604052508101906200033d919062001246565b82828151811062000377577f4e487b7100000000000000000000000000000000000000000000000000000000600052603260045260246000fd5b60200260200101516020018190525060008082815260200190815260200160002060000160009054906101000a900473ffffffffffffffffffffffffffffffffffffffff1673ffffffffffffffffffffffffffffffffffffffff1663a035b1fe6040518163ffffffff1660e01b815260040160206040518083038186803b1580156200040257600080fd5b505afa15801562000417573d6000803e3d6000fd5b505050506040513d601f19601f820116820180604052508101906200043d91906200139d565b82828151811062000477577f4e487b7100000000000000000000000000000000000000000000000000000000600052603260045260246000fd5b6020026020010151604001818152505060008082815260200190815260200160002060000160009054906101000a900473ffffffffffffffffffffffffffffffffffffffff1673ffffffffffffffffffffffffffffffffffffffff1663105478516040518163ffffffff1660e01b815260040160206040518083038186803b1580156200050357600080fd5b505afa15801562000518573d6000803e3d6000fd5b505050506040513d601f19601f820116820180604052508101906200053e9190620011ee565b82828151811062000578577f4e487b7100000000000000000000000000000000000000000000000000000000600052603260045260246000fd5b60200260200101516060019073ffffffffffffffffffffffffffffffffffffffff16908173ffffffffffffffffffffffffffffffffffffffff168152505060008082815260200190815260200160002060000160009054906101000a900473ffffffffffffffffffffffffffffffffffffffff1673ffffffffffffffffffffffffffffffffffffffff16636688c7c66040518163ffffffff1660e01b815260040160006040518083038186803b1580156200063257600080fd5b505afa15801562000647573d6000803e3d6000fd5b505050506040513d6000823e3d601f19601f8201168201806040525081019062000672919062001246565b828281518110620006ac577f4e487b7100000000000000000000000000000000000000000000000000000000600052603260045260246000fd5b60200260200101516080018190525060008082815260200190815260200160002060000160009054906101000a900473ffffffffffffffffffffffffffffffffffffffff1673ffffffffffffffffffffffffffffffffffffffff1663af640d0f6040518163ffffffff1660e01b815260040160206040518083038186803b1580156200073757600080fd5b505afa1580156200074c573d6000803e3d6000fd5b505050506040513d601f19601f820116820180604052508101906200077291906200139d565b828281518110620007ac577f4e487b7100000000000000000000000000000000000000000000000000000000600052603260045260246000fd5b602002602001015160a001818152505060008082815260200190815260200160002060000160009054906101000a900473ffffffffffffffffffffffffffffffffffffffff1673ffffffffffffffffffffffffffffffffffffffff1663e852e7416040518163ffffffff1660e01b815260040160206040518083038186803b1580156200083857600080fd5b505afa1580156200084d573d6000803e3d6000fd5b505050506040513d601f19601f820116820180604052508101906200087391906200121a565b828281518110620008ad577f4e487b7100000000000000000000000000000000000000000000000000000000600052603260045260246000fd5b602002602001015160c001901515908115158152505060008082815260200190815260200160002060000160009054906101000a900473ffffffffffffffffffffffffffffffffffffffff1673ffffffffffffffffffffffffffffffffffffffff16634dd745fc6040518163ffffffff1660e01b815260040160006040518083038186803b1580156200093f57600080fd5b505afa15801562000954573d6000803e3d6000fd5b505050506040513d6000823e3d601f19601f820116820180604052508101906200097f919062001246565b828281518110620009b9577f4e487b7100000000000000000000000000000000000000000000000000000000600052603260045260246000fd5b602002602001015160e0018190525060008082815260200190815260200160002060000160009054906101000a900473ffffffffffffffffffffffffffffffffffffffff1682828151811062000a38577f4e487b7100000000000000000000000000000000000000000000000000000000600052603260045260246000fd5b6020026020010151610100019073ffffffffffffffffffffffffffffffffffffffff16908173ffffffffffffffffffffffffffffffffffffffff1681525050808062000a849062001990565b91505062000171565b508091505090565b60008086868633876001548860405162000aaf90620010a0565b62000ac1979695949392919062001707565b604051809103906000f08015801562000ade573d6000803e3d6000fd5b50905080600080600154815260200190815260200160002060000160006101000a81548173ffffffffffffffffffffffffffffffffffffffff021916908373ffffffffffffffffffffffffffffffffffffffff1602179055506001600081548092919062000b4c9062001990565b91905055508091505095945050505050565b6000808290506000151560008083815260200190815260200160002060000160009054906101000a900473ffffffffffffffffffffffffffffffffffffffff1673ffffffffffffffffffffffffffffffffffffffff1663e852e7416040518163ffffffff1660e01b815260040160206040518083038186803b15801562000be457600080fd5b505afa15801562000bf9573d6000803e3d6000fd5b505050506040513d601f19601f8201168201806040525081019062000c1f91906200121a565b15151462000c64576040517f08c379a000000000000000000000000000000000000000000000000000000000815260040162000c5b90620017c2565b60405180910390fd5b60008082815260200190815260200160002060000160009054906101000a900473ffffffffffffffffffffffffffffffffffffffff1673ffffffffffffffffffffffffffffffffffffffff1663105478516040518163ffffffff1660e01b815260040160206040518083038186803b15801562000ce057600080fd5b505afa15801562000cf5573d6000803e3d6000fd5b505050506040513d601f19601f8201168201806040525081019062000d1b9190620011ee565b73ffffffffffffffffffffffffffffffffffffffff163373ffffffffffffffffffffffffffffffffffffffff16141562000d8c576040517f08c379a000000000000000000000000000000000000000000000000000000000815260040162000d8390620017e4565b60405180910390fd5b3460008083815260200190815260200160002060000160009054906101000a900473ffffffffffffffffffffffffffffffffffffffff1673ffffffffffffffffffffffffffffffffffffffff1663a035b1fe6040518163ffffffff1660e01b815260040160206040518083038186803b15801562000e0957600080fd5b505afa15801562000e1e573d6000803e3d6000fd5b505050506040513d601f19601f8201168201806040525081019062000e4491906200139d565b1462000e87576040517f08c379a000000000000000000000000000000000000000000000000000000000815260040162000e7e90620017a0565b60405180910390fd5b60008082815260200190815260200160002060000160009054906101000a900473ffffffffffffffffffffffffffffffffffffffff1673ffffffffffffffffffffffffffffffffffffffff1663105478516040518163ffffffff1660e01b815260040160206040518083038186803b15801562000f0357600080fd5b505afa15801562000f18573d6000803e3d6000fd5b505050506040513d601f19601f8201168201806040525081019062000f3e9190620011ee565b73ffffffffffffffffffffffffffffffffffffffff166108fc349081150290604051600060405180830381858888f1935050505015801562000f84573d6000803e3d6000fd5b5060008082815260200190815260200160002060000160009054906101000a900473ffffffffffffffffffffffffffffffffffffffff1673ffffffffffffffffffffffffffffffffffffffff16635b0e2e6d6040518163ffffffff1660e01b8152600401600060405180830381600087803b1580156200100357600080fd5b505af115801562001018573d6000803e3d6000fd5b505050506001915050919050565b604051806101200160405280606081526020016060815260200160008152602001600073ffffffffffffffffffffffffffffffffffffffff168152602001606081526020016000815260200160001515815260200160608152602001600073ffffffffffffffffffffffffffffffffffffffff1681525090565b610ba98062001b3d83390190565b6000620010c5620010bf846200182f565b62001806565b905082815260208101848484011115620010de57600080fd5b620010eb84828562001915565b509392505050565b60006200110a62001104846200182f565b62001806565b9050828152602081018484840111156200112357600080fd5b6200113084828562001924565b509392505050565b600081519050620011498162001aee565b92915050565b600081519050620011608162001b08565b92915050565b600082601f8301126200117857600080fd5b81356200118a848260208601620010ae565b91505092915050565b600082601f830112620011a557600080fd5b8151620011b7848260208601620010f3565b91505092915050565b600081359050620011d18162001b22565b92915050565b600081519050620011e88162001b22565b92915050565b6000602082840312156200120157600080fd5b6000620012118482850162001138565b91505092915050565b6000602082840312156200122d57600080fd5b60006200123d848285016200114f565b91505092915050565b6000602082840312156200125957600080fd5b600082015167ffffffffffffffff8111156200127457600080fd5b620012828482850162001193565b91505092915050565b600080600080600060a08688031215620012a457600080fd5b600086013567ffffffffffffffff811115620012bf57600080fd5b620012cd8882890162001166565b955050602086013567ffffffffffffffff811115620012eb57600080fd5b620012f98882890162001166565b94505060406200130c88828901620011c0565b935050606086013567ffffffffffffffff8111156200132a57600080fd5b620013388882890162001166565b925050608086013567ffffffffffffffff8111156200135657600080fd5b620013648882890162001166565b9150509295509295909350565b6000602082840312156200138457600080fd5b60006200139484828501620011c0565b91505092915050565b600060208284031215620013b057600080fd5b6000620013c084828501620011d7565b91505092915050565b6000620013d783836200159b565b905092915050565b620013ea81620018cb565b82525050565b620013fb81620018cb565b82525050565b60006200140e8262001875565b6200141a818562001898565b9350836020820285016200142e8562001865565b8060005b858110156200147057848403895281516200144e8582620013c9565b94506200145b836200188b565b925060208a0199505060018101905062001432565b50829750879550505050505092915050565b6200148d81620018df565b82525050565b6200149e81620018df565b82525050565b6000620014b18262001880565b620014bd8185620018a9565b9350620014cf81856020860162001924565b620014da8162001a3c565b840191505092915050565b6000620014f28262001880565b620014fe8185620018ba565b93506200151081856020860162001924565b6200151b8162001a3c565b840191505092915050565b600062001535601483620018ba565b9150620015428262001a4d565b602082019050919050565b60006200155c601283620018ba565b9150620015698262001a76565b602082019050919050565b600062001583602583620018ba565b9150620015908262001a9f565b604082019050919050565b6000610120830160008301518482036000860152620015bb8282620014a4565b91505060208301518482036020860152620015d78282620014a4565b9150506040830151620015ee604086018262001687565b506060830151620016036060860182620013df565b50608083015184820360808601526200161d8282620014a4565b91505060a08301516200163460a086018262001687565b5060c08301516200164960c086018262001482565b5060e083015184820360e0860152620016638282620014a4565b9150506101008301516200167c610100860182620013df565b508091505092915050565b62001692816200190b565b82525050565b620016a3816200190b565b82525050565b6000602082019050620016c06000830184620013f0565b92915050565b60006020820190508181036000830152620016e2818462001401565b905092915050565b600060208201905062001701600083018462001493565b92915050565b600060e082019050818103600083015262001723818a620014e5565b90508181036020830152620017398189620014e5565b90506200174a604083018862001698565b620017596060830187620013f0565b81810360808301526200176d8186620014e5565b90506200177e60a083018562001698565b81810360c0830152620017928184620014e5565b905098975050505050505050565b60006020820190508181036000830152620017bb8162001526565b9050919050565b60006020820190508181036000830152620017dd816200154d565b9050919050565b60006020820190508181036000830152620017ff8162001574565b9050919050565b60006200181262001825565b90506200182082826200195a565b919050565b6000604051905090565b600067ffffffffffffffff8211156200184d576200184c62001a0d565b5b620018588262001a3c565b9050602081019050919050565b6000819050602082019050919050565b600081519050919050565b600081519050919050565b6000602082019050919050565b600082825260208201905092915050565b600082825260208201905092915050565b600082825260208201905092915050565b6000620018d882620018eb565b9050919050565b60008115159050919050565b600073ffffffffffffffffffffffffffffffffffffffff82169050919050565b6000819050919050565b82818337600083830152505050565b60005b838110156200194457808201518184015260208101905062001927565b8381111562001954576000848401525b50505050565b620019658262001a3c565b810181811067ffffffffffffffff8211171562001987576200198662001a0d565b5b80604052505050565b60006200199d826200190b565b91507fffffffffffffffffffffffffffffffffffffffffffffffffffffffffffffffff821415620019d357620019d2620019de565b5b600182019050919050565b7f4e487b7100000000000000000000000000000000000000000000000000000000600052601160045260246000fd5b7f4e487b7100000000000000000000000000000000000000000000000000000000600052604160045260246000fd5b6000601f19601f8301169050919050565b7f496e73756666696369656e742062616c616e6365000000000000000000000000600082015250565b7f4974656d206e6f7420617661696c61626c650000000000000000000000000000600082015250565b7f596f752063616e206e6f742062757920796f7572206f776e20706f737465642060008201527f6974656d2e000000000000000000000000000000000000000000000000000000602082015250565b62001af981620018cb565b811462001b0557600080fd5b50565b62001b1381620018df565b811462001b1f57600080fd5b50565b62001b2d816200190b565b811462001b3957600080fd5b5056fe60806040523480156200001157600080fd5b5060405162000ba938038062000ba9833981810160405281019062000037919062000262565b8460028190555085600190805190602001906200005692919062000112565b5086600090805190602001906200006f92919062000112565b50816003819055506000600460006101000a81548160ff02191690831515021790555083600460016101000a81548173ffffffffffffffffffffffffffffffffffffffff021916908373ffffffffffffffffffffffffffffffffffffffff1602179055508260059080519060200190620000eb92919062000112565b5080600690805190602001906200010492919062000112565b505050505050505062000555565b828054620001209062000446565b90600052602060002090601f01602090048101928262000144576000855562000190565b82601f106200015f57805160ff191683800117855562000190565b8280016001018555821562000190579182015b828111156200018f57825182559160200191906001019062000172565b5b5090506200019f9190620001a3565b5090565b5b80821115620001be576000816000905550600101620001a4565b5090565b6000620001d9620001d3846200039c565b62000373565b905082815260208101848484011115620001f257600080fd5b620001ff84828562000410565b509392505050565b600081519050620002188162000521565b92915050565b600082601f8301126200023057600080fd5b815162000242848260208601620001c2565b91505092915050565b6000815190506200025c816200053b565b92915050565b600080600080600080600060e0888a0312156200027e57600080fd5b600088015167ffffffffffffffff8111156200029957600080fd5b620002a78a828b016200021e565b975050602088015167ffffffffffffffff811115620002c557600080fd5b620002d38a828b016200021e565b9650506040620002e68a828b016200024b565b9550506060620002f98a828b0162000207565b945050608088015167ffffffffffffffff8111156200031757600080fd5b620003258a828b016200021e565b93505060a0620003388a828b016200024b565b92505060c088015167ffffffffffffffff8111156200035657600080fd5b620003648a828b016200021e565b91505092959891949750929550565b60006200037f62000392565b90506200038d82826200047c565b919050565b6000604051905090565b600067ffffffffffffffff821115620003ba57620003b9620004e1565b5b620003c58262000510565b9050602081019050919050565b6000620003df82620003e6565b9050919050565b600073ffffffffffffffffffffffffffffffffffffffff82169050919050565b6000819050919050565b60005b838110156200043057808201518184015260208101905062000413565b8381111562000440576000848401525b50505050565b600060028204905060018216806200045f57607f821691505b60208210811415620004765762000475620004b2565b5b50919050565b620004878262000510565b810181811067ffffffffffffffff82111715620004a957620004a8620004e1565b5b80604052505050565b7f4e487b7100000000000000000000000000000000000000000000000000000000600052602260045260246000fd5b7f4e487b7100000000000000000000000000000000000000000000000000000000600052604160045260246000fd5b6000601f19601f8301169050919050565b6200052c81620003d2565b81146200053857600080fd5b50565b620005468162000406565b81146200055257600080fd5b50565b61064480620005656000396000f3fe608060405234801561001057600080fd5b50600436106100935760003560e01c80636688c7c6116100665780636688c7c6146100fc5780637284e4161461011a578063a035b1fe14610138578063af640d0f14610156578063e852e7411461017457610093565b806310547851146100985780634a79d50c146100b65780634dd745fc146100d45780635b0e2e6d146100f2575b600080fd5b6100a0610192565b6040516100ad9190610492565b60405180910390f35b6100be6101b8565b6040516100cb91906104c8565b60405180910390f35b6100dc610246565b6040516100e991906104c8565b60405180910390f35b6100fa6102d4565b005b6101046102f1565b60405161011191906104c8565b60405180910390f35b61012261037f565b60405161012f91906104c8565b60405180910390f35b61014061040d565b60405161014d91906104ea565b60405180910390f35b61015e610413565b60405161016b91906104ea565b60405180910390f35b61017c610419565b60405161018991906104ad565b60405180910390f35b600460019054906101000a900473ffffffffffffffffffffffffffffffffffffffff1681565b600080546101c59061059c565b80601f01602080910402602001604051908101604052809291908181526020018280546101f19061059c565b801561023e5780601f106102135761010080835404028352916020019161023e565b820191906000526020600020905b81548152906001019060200180831161022157829003601f168201915b505050505081565b600680546102539061059c565b80601f016020809104026020016040519081016040528092919081815260200182805461027f9061059c565b80156102cc5780601f106102a1576101008083540402835291602001916102cc565b820191906000526020600020905b8154815290600101906020018083116102af57829003601f168201915b505050505081565b6001600460006101000a81548160ff021916908315150217905550565b600580546102fe9061059c565b80601f016020809104026020016040519081016040528092919081815260200182805461032a9061059c565b80156103775780601f1061034c57610100808354040283529160200191610377565b820191906000526020600020905b81548152906001019060200180831161035a57829003601f168201915b505050505081565b6001805461038c9061059c565b80601f01602080910402602001604051908101604052809291908181526020018280546103b89061059c565b80156104055780601f106103da57610100808354040283529160200191610405565b820191906000526020600020905b8154815290600101906020018083116103e857829003601f168201915b505050505081565b60025481565b60035481565b600460009054906101000a900460ff1681565b61043581610521565b82525050565b61044481610533565b82525050565b600061045582610505565b61045f8185610510565b935061046f818560208601610569565b610478816105fd565b840191505092915050565b61048c8161055f565b82525050565b60006020820190506104a7600083018461042c565b92915050565b60006020820190506104c2600083018461043b565b92915050565b600060208201905081810360008301526104e2818461044a565b905092915050565b60006020820190506104ff6000830184610483565b92915050565b600081519050919050565b600082825260208201905092915050565b600061052c8261053f565b9050919050565b60008115159050919050565b600073ffffffffffffffffffffffffffffffffffffffff82169050919050565b6000819050919050565b60005b8381101561058757808201518184015260208101905061056c565b83811115610596576000848401525b50505050565b600060028204905060018216806105b457607f821691505b602082108114156105c8576105c76105ce565b5b50919050565b7f4e487b7100000000000000000000000000000000000000000000000000000000600052602260045260246000fd5b6000601f19601f830116905091905056fea264697066735822122042b63793138abb82365f101c778608b1c5adba2c30b403337bf36f56909985f064736f6c63430008040033a264697066735822122026b0e47fc9b8928f907d4cd11ea846cd95031f3a80d823296af224f524dfaadf64736f6c63430008040033",
  "immutableReferences": {},
  "source": "// SPDX-License-Identifier: GPL-3.0\npragma solidity >=0.8.4;\nimport \"./Item.sol\";\n\ncontract ItemManager {\n    struct S_Item {\n        Item item;\n    }\n    \n    struct Product {\n        string  title;\n        string  description;\n        uint256  price;\n        address sellerAccount;\n        string sellerName;\n        uint256 id;\n        bool isSold;\n        string imageAddress;\n        address productAddress;\n    }\n\n    mapping(uint256 => S_Item) items;\n    uint256 index = 0;\n    address userContractAddress;\n\n    function createItem(\n        string memory _title,\n        string memory _description,\n        uint256 _price,\n        string memory name,\n        string memory imageHash\n    ) public returns(address _itemAddress) {\n        Item item = new Item(_title, _description, _price, msg.sender, name, index, imageHash);\n        items[index].item = item;\n        index++;\n\n        return address(item);\n    }\n\n    function getItems() public view returns(Product[] memory){\n        Product[] memory products = new Product[](index);\n        \n        for(uint i = 0; i < index; i++) {\n            products[i].title = items[i].item.title();\n            products[i].description = items[i].item.description(); \n            products[i].price = items[i].item.price();\n            products[i].sellerAccount = items[i].item.sellerAccount();\n            products[i].sellerName = items[i].item.sellerName();\n            products[i].id = items[i].item.id();\n            products[i].isSold = items[i].item.isSold(); \n            products[i].imageAddress = items[i].item.imageAddress();\n            products[i].productAddress = address(items[i].item);\n        }\n\n       return products;\n    }\n\n    function buyItem(uint itemIndex) public payable returns(bool isSuccess) {\n        uint u = uint(itemIndex);\n\n        require(items[u].item.isSold() == false, \"Item not available\");\n        require(msg.sender != items[u].item.sellerAccount(), \"You can not buy your own posted item.\");\n        require(items[u].item.price() == msg.value, \"Insufficient balance\");\n        payable(items[u].item.sellerAccount()).transfer(msg.value);\n        items[u].item.setItemSold();\n        \n        return true;\n    }\n}\n",
  "sourcePath": "/Users/srikanth.mangipudi/Personalspace/Blockchain Development/sell-buy/contracts/ItemManager.sol",
  "compiler": {
    "name": "solc",
    "version": "0.8.4+commit.c7e474f2.Emscripten.clang"
  },
  "schemaVersion": "3.4.1",
  "updatedAt": "2021-06-11T14:14:55.043Z",
  "networkType": "ethereum",
  "devdoc": {
    "kind": "dev",
    "methods": {},
    "version": 1
  },
  "userdoc": {
    "kind": "user",
    "methods": {},
    "version": 1
  }
}