{
  "contractName": "Users",
  "abi": [
    {
      "inputs": [
        {
          "internalType": "string",
          "name": "name",
          "type": "string"
        }
      ],
      "name": "createUser",
      "outputs": [
        {
          "internalType": "string",
          "name": "",
          "type": "string"
        }
      ],
      "stateMutability": "nonpayable",
      "type": "function"
    },
    {
      "inputs": [
        {
          "internalType": "address",
          "name": "_addr",
          "type": "address"
        }
      ],
      "name": "getUser",
      "outputs": [
        {
          "internalType": "string",
          "name": "name",
          "type": "string"
        }
      ],
      "stateMutability": "view",
      "type": "function",
      "constant": true
    }
  ],
  "bytecode": "0x608060405234801561001057600080fd5b50610612806100206000396000f3fe608060405234801561001057600080fd5b50600436106100365760003560e01c8063507ffba51461003b5780636f77926b1461006b575b600080fd5b61005560048036038101906100509190610371565b61009b565b60405161006291906103eb565b60405180910390f35b61008560048036038101906100809190610348565b610155565b60405161009291906103eb565b60405180910390f35b6060816000803373ffffffffffffffffffffffffffffffffffffffff1673ffffffffffffffffffffffffffffffffffffffff16815260200190815260200160002060000190805190602001906100f2929190610228565b5060016000803373ffffffffffffffffffffffffffffffffffffffff1673ffffffffffffffffffffffffffffffffffffffff16815260200190815260200160002060010160006101000a81548160ff021916908315150217905550819050919050565b60606000808373ffffffffffffffffffffffffffffffffffffffff1673ffffffffffffffffffffffffffffffffffffffff16815260200190815260200160002060000180546101a3906104f3565b80601f01602080910402602001604051908101604052809291908181526020018280546101cf906104f3565b801561021c5780601f106101f15761010080835404028352916020019161021c565b820191906000526020600020905b8154815290600101906020018083116101ff57829003601f168201915b50505050509050919050565b828054610234906104f3565b90600052602060002090601f016020900481019282610256576000855561029d565b82601f1061026f57805160ff191683800117855561029d565b8280016001018555821561029d579182015b8281111561029c578251825591602001919060010190610281565b5b5090506102aa91906102ae565b5090565b5b808211156102c75760008160009055506001016102af565b5090565b60006102de6102d984610432565b61040d565b9050828152602081018484840111156102f657600080fd5b6103018482856104b1565b509392505050565b600081359050610318816105c5565b92915050565b600082601f83011261032f57600080fd5b813561033f8482602086016102cb565b91505092915050565b60006020828403121561035a57600080fd5b600061036884828501610309565b91505092915050565b60006020828403121561038357600080fd5b600082013567ffffffffffffffff81111561039d57600080fd5b6103a98482850161031e565b91505092915050565b60006103bd82610463565b6103c7818561046e565b93506103d78185602086016104c0565b6103e0816105b4565b840191505092915050565b6000602082019050818103600083015261040581846103b2565b905092915050565b6000610417610428565b90506104238282610525565b919050565b6000604051905090565b600067ffffffffffffffff82111561044d5761044c610585565b5b610456826105b4565b9050602081019050919050565b600081519050919050565b600082825260208201905092915050565b600061048a82610491565b9050919050565b600073ffffffffffffffffffffffffffffffffffffffff82169050919050565b82818337600083830152505050565b60005b838110156104de5780820151818401526020810190506104c3565b838111156104ed576000848401525b50505050565b6000600282049050600182168061050b57607f821691505b6020821081141561051f5761051e610556565b5b50919050565b61052e826105b4565b810181811067ffffffffffffffff8211171561054d5761054c610585565b5b80604052505050565b7f4e487b7100000000000000000000000000000000000000000000000000000000600052602260045260246000fd5b7f4e487b7100000000000000000000000000000000000000000000000000000000600052604160045260246000fd5b6000601f19601f8301169050919050565b6105ce8161047f565b81146105d957600080fd5b5056fea264697066735822122054c433c5773fc7496d98a3d3ad6a0d3d56ec80a1049d3ec2c94470c6b538e2ae64736f6c63430008040033",
  "immutableReferences": {},
  "source": "// SPDX-License-Identifier: GPL-3.0\npragma solidity >=0.8.4;\n\ncontract Users {\n    struct User {\n        string name;\n        bool isActive;\n    }\n\n    mapping(address => User) users;\n    function createUser(string memory name) public returns(string memory) {\n        users[msg.sender].name = name;\n        users[msg.sender].isActive = true;\n        \n        return name;\n    }\n\n    function getUser(address _addr) public view returns(string memory name)  {\n        return users[_addr].name;\n    }\n}",
  "sourcePath": "/Users/srikanth.mangipudi/Personalspace/Blockchain Development/sell-buy/contracts/Users.sol",
  "compiler": {
    "name": "solc",
    "version": "0.8.4+commit.c7e474f2.Emscripten.clang"
  },
  "schemaVersion": "3.4.1",
  "updatedAt": "2021-06-11T14:14:55.033Z",
  "networkType": "ethereum",
  "devdoc": {
    "kind": "dev",
    "methods": {},
    "version": 1
  },
  "userdoc": {
    "kind": "user",
    "methods": {},
    "version": 1
  }
}